:060000000A128A112628F5
:10000800F000030EF1000B1810200B191820710EC8
:100018008300F00E700E090003138312061C850A74
:10002800861F85030B100800B23081000B11A00A4F
:100038002008323C031D2528A001A10A210800211F
:100048008800080045203E2059202F203820050828
:10005800002187002B280313831616149617031301
:10006800831206080B1008008B178B150B108B16C4
:100078000B110800031383160F178F160F120F1496
:100088000800031783168801890103138316850165
:100098008701880106148617811315149517031311
:1000A80083128501870188010800031383168112D2
:1000B800811101158114011403138312B2308100D8
:0400C8000B11080010
:100200008A010A140F3982073F3406345B344F34B5
:1002100066346D347D3407347F346F3477347C3406
:0802200039345E347934713485
:04400E00C430FF3F7C
:00000001FF
